:100000000A128A11FC2F00308A000408840A820731
:1000100000343F3406345B344F3466346D347D3401
:1000200007347F346F3477347C3439345E34793438
:02003000713429
:100FA00083160317880189010F3083160313850008
:100FB0008601831203138601831203130508F300CD
:100FC0000F30F3057308013E84000A128A110320D2
:100FD0000A128A1186000230F2000430F100BA30A1
:100FE000F000F00BF12FF10BF12FF20BF12F0000BD
:100FF000DC2F0A128A11002883010A128A11D02FCD
:02400E00E223AB
:00000001FF
