:100000000A128A11F92F00308A000408840A820734
:100010000034C034F934A434B03499349234823486
:10002000F8348034903488348334C634A134863430
:020030008E340C
:100C1000F501F31F0C2E0D2E142EF209F309F20A22
:100C20000319F30A0130F500F11F172E182E1D2E9F
:100C3000F009F109F00A0319F10A700871040319A7
:100C4000222E232E502E0130F4002F2E01300310BF
:100C5000F00DF10DFF3E031D272E0130F407F11FAB
:100C6000322E332E262E71087302031D392E700882
:100C70007202031C3C2E3D2E432E7008F2027108B6
:100C8000031CF303F30201300310F10CF00CFF3EE0
:100C9000031D442E0130F402031D4F2E502E332E1F
:100CA00075080319542E552E5A2EF209F309F20A2B
:100CB0000319F30A7308F1007208F0000800FB0141
:100CC000F71F632E642E6B2EF609F709F60A031937
:100CD000F70A0130FB00F91F6E2E6F2E762EF809F1
:100CE000F909F80A0319F90A0130FB06FC01FD01B4
:100CF0007608770403197D2E7E2EB32E0130FA007C
:100D00008A2E01300310F60DF70DFF3E031D822ED3
:100D10000130FA07F71F8D2E8E2E812E0130031021
:100D2000FC0DFD0DFF3E031D8F2E77087902031D7C
:100D30009B2E76087802031C9E2E9F2EA62E7608E8
:100D4000F8027708031CF903F9027C140130031040
:100D5000F70CF60CFF3E031DA72E0130FA02031D0F
:100D6000B22EB32E8E2E7B080319B72EB82EBD2EB1
:100D7000FC09FD09FC0A0319FD0A7D08F7007C083F
:100D8000F60008000630831603139F00FF3086002C
:100D900008308500880183120313851DD02ED12EC3
:100DA000EF2E413083120313A100ED30A000A00B01
:100DB000D72EA10BD72EDC2E83120313851DE12E17
:100DC000E22EEF2E0130A60703302602031CE92E87
:100DD000EA2EEB2EA6018519EE2EEF2EEB2E06083D
:100DE000A5002608031DF52EF62E402F6430F600D0
:100DF0000030F7002508A000A1012008F800210814
:100E0000F9000A128A115F260A128A1176088312E3
:100E10000313A4000A30F6000030F7002508A000F4
:100E2000A1012008F2002108F3006430F000003036
:100E3000F1000A128A1108260A128A117108F900B3
:100E40007008F8000A128A115F260A128A117608C1
:100E500083120313A2000A30F0000030F1002508CD
:100E6000A000A1012008F2002108F3000A128A1153
:100E700008260A128A11700883120313A300902F08
:100E80002603031D442F452F762F2508A000A1011E
:100E90002008F8002108F9004030F6000030F70083
:100EA0000A128A115F260A128A1176088312031326
:100EB000A4000730A4052508A000A1012008F8001F
:100EC0002108F9000830F6000030F7000A128A11F4
:100ED0005F260A128A11760883120313A2000730D4
:100EE000A2052508A3000730A305902F1030A40009
:100EF0001030F6000030F7002508A000A1012008FE
:100F0000F8002108F9000A128A115F260A128A11D4
:100F1000760883120313A2002508A3000F30A3054F
:100F20002308013E84000A128A1103200A128A1142
:100F300088000514073083120313A1007C30A00041
:100F4000A00BA02FA10BA02F0000831203130510EC
:100F50002208013E84000A128A1103200A128A1113
:100F600088008514073083120313A1007C30A00091
:100F7000A00BB82FA10BB82F00008312031385100C
:100F80000A302402031CC52FC62FD12F2603031DB0
:100F9000CA2FCB2FEA2F083024020318D02FD12FCD
:100FA000EA2F2408013E84000A128A1103200A1243
:100FB0008A1188000515073083120313A1007C30C5
:100FC000A000A00BE12FA10BE12F0000831203135F
:100FD0000511CB2E073083120313A1007C30A00033
:100FE000A00BF02FA10BF02F0000CB2E0A128A11BC
:100FF000002883120313A60183010A128A11C22E4C
:02400E00F12F90
:00000001FF
